:0308560001080096
:1006A500E52C75F00A1205AAFD7F01120003E52C61
:1006B50075F00A1205AAADF07F021200037D117FC5
:1006C50003120003E52D75F00A1205AAFD7F041239
:1006D5000003E52D75F00A1205AAADF07F0512009D
:1006E500037D117F06120003E52E75F00A1205AA97
:1006F500FD7F07120003E52E75F00A1205AAADF07D
:050705007F0802000363
:100154007D0C7F011200037D137F021200037D13C7
:100164007F031200037D137F041200037D137F05B8
:100174001200037D137F061200037D137F07120014
:10018400037D137F081200031209888F0EE50E64A5
:100194000A700302025AE50E6413700302025AE560
:1001A4000E640B700302025A0508E508C394044068
:1001B4000302025AE508B40107850E15AD15802B1C
:1001C400E508B4020E850E16AD157F07120003ADC7
:1001D4000E8018E508B4031A850E17AD157F0612B4
:1001E4000003AD167F07120003AD177F081200034A
:1001F4008028E50864047022850E18AD157F051269
:100204000003AD167F06120003AD177F071200032B
:10021400AD187F08120003E4F508AF187E007C03D4
:100224007DE81205CCAC06AD07E51775F064A4AE05
:10023400F02DF51CEC3EF51BE51675F00AA4AEF0A6
:100244007C002515F51EEC3EF51DE51C251EF5125A
:10025400E51B351DF511E50EB40B1C7D137F05124E
:1002640000037D137F061200037D137F0712000332
:070274007D137F0812000357
:01027B002260
:10070A007D0E7F011200037D137F021200037D1309
:10071A007F031200037D027F041200037D037F051D
:10072A001200037D117F06120003E4FD7F07120009
:08073A00037D097F08020003A2
:10000E007FF412095B1208DF1209A212027C12069B
:10001E00A512098E1209888F0EE50EB40A08750E08
:10002E0013050D530D03E50D24FE6012147003022B
:10003E00014B240270DE12099312015480D612096C
:10004E0098120407AD2CE4FF1208347F0512095BE9
:10005E00AD2D7F011208347F0512095B7F02120756
:10006E00AC7513008F147F0512095BE513C4F854A9
:10007E00F0C868FEE514C4540F48FF7C037DE812F7
:10008E0005CCAA06AB077E00E514540FFF7C007D5D
:10009E00641205CCEB2FF514EA3EF5137F0312071D
:1000AE00AC7519008F1AE519C4F854F0C868FEE54E
:1000BE001AC4540F48FF7C007D0A1205CCE51A5471
:1000CE000F2FF51AEC3EF5197F0512095BE5142585
:1000DE001AF510E5133519F50FC3E5109512E50F56
:1000EE009511500312099DAE1BAF1C7C007D0A12A8
:1000FE0005DEEFC454F0FBAE1BAF1C7C007D0A1274
:10010E0005DEEB2DFD7F021208347F0512095BAE72
:10011E001DAF1E7C007D0A1205DEEFC454F0FBAE4F
:10012E001DAF1E7C007D0A1205DEEB2DFD7F031236
:10013E0008347F0512095B12070A02002212098E8B
:06014E001206A5020022CA
:03000B00020633B7
:10063300C0E0C0F0C083C082C0D075D000C000C08D
:0D06430001C002C003C004C005C006C0070E
:10065000758A66758CFC050AE50A70020509C39463
:1006600002E50994004009750900750A001208C6E0
:10067000050CE50C7002050BC39414E50B940040C7
:0A06800009750B00750C001205202F
:10068A00D007D006D005D004D003D002D001D000C4
:0B069A00D0D0D082D083D0F0D0E0326E
:1008DF00538E7F5389F0438901758A66758CFCD2DC
:0808EF00A9C28DD28CD2AF2208
:0308590001361352
:05098800AF36753613C7
:01098D002247
:10035C007F13C2C4D2C2D2B5D2B4D2B0D2B1D2B24F
:10036C00D2B320B0047F11801320B104E4FF800CC1
:10037C0020B2047F0B800520B3027F0AD2C4C2C214
:10038C00D2B5D2B4D2B0D2B1D2B2D2B320B0047FF3
:10039C0011801320B1047F01800C20B2047F0480F3
:1003AC000520B3027F07D2C4D2C2C2B5D2B4D2B038
:1003BC00D2B1D2B2D2B320B0047F11801320B104D9
:1003CC007F02800C20B2047F05800520B3027F08D9
:1003DC00D2C4D2C2D2B5C2B4D2B0D2B1D2B2D2B3DC
:1003EC0020B0047F11801320B1047F03800C20B255
:0A03FC00047F06800520B3027F098C
:0104060022D3
:1005200085343512035C8F34E5357008E534B41337
:1005300003E4F536E535B40108E534B41303753644
:1005400001E535B40208E534B41303753602E53528
:10055000B40308E534B41303753603E535B4040871
:10056000E534B41303753604E535B40508E534B451
:100570001303753605E535B40608E534B413037581
:100580003606E535B40708E534B41303753607E5D8
:1005900035B40808E534B41303753608E535B409F5
:0905A00008E534B41303753609B3
:0105A900222F
:10092300C0F9A4B0999282F880908883C6A1868E7C
:03093300BF7FFF84
:0E085C000920001313131313131313011F01AC
:0700030074202FF8A605226E
:1007DC008F308D317580FF7F06120779E53014FF5D
:1007EC007401A807088002C333D8FCF4F5807F0796
:0C07FC00120779E53190092393F5802263
:1008C6007420251FF8E6FDAF1F1207DC051FE51F84
:0808D600D394095003751F01C2
:0108DE0022F7
:0408AC00D2A07F0552
:1008B000000000000000000000000000000000AE8A
:0608C000071FEE70EB22A1
:0F096D00D2A11208ACC2A17F051208B0C2A0220D
:0C097C00C2A11208ACD2A17F050208B095
:02080800AD073A
:10080A00E4FCC2A07F051208B0ED30E704D2A18053
:10081A0002C2A17F051208B0D2A0ED25E0FD7F0536
:09082A001208B00CBC08DBC2A0EE
:0108330022A2
:10087400E4FC1208ACED25E0FD30A103430501C200
:0C088400A07F051208B00CBC08E8AF050E
:010890002245
:100949001208ACA2A1E433FDC2A07F051208B0AF22
:010959000598
:01095A00227A
:1008F700C2A0EF24FF92A17F051208B01208ACC274
:08090700A0D2A17F050208B097
:100891008F327F04120779E53214FF7401A807082B
:0B08A1008002C333D8FC74FFF58022F6
:05098E007F0102089149
:050993007F0202089143
:050998007F030208913D
:05099D007F0402089137
:100834008F328D3312096D7FA0120808120949AF57
:1008440032120808120949AF331208081209490282
:02085400097C1D
:0207AC008F328A
:1007AE0012096D7FA0120808120949AF321208080B
:1007BE0012094912096D7FA112080812094912087F
:0D07CE00748F337F011208F712097CAF33DE
:0107DB0022FB
:09086A000729170B0D120C1E01E9
:0509A200C293C2972280
:10093600E4FEC297EF1392A3EFC313FFD2970EBE46
:0209460008F0B7
:01094800228C
:10090F00C29300C29700D29300120936AF051209A5
:04091F0036C2932227
:10074200E4FDC29300C29700D2930043070112094D
:1007520036E4FFC297EDC313FD30A303430580D2F5
:10076200970FBF08EEC29300C29700D29700C2A3B0
:0607720000D2A300AF0558
:01077800225E
:10027C00E4FD7F8E12090FE52975F00A1205AAC458
:10028C0054F0FFE52975F00A1205AAAEF0EF2EFD29
:10029C007F8C12090FE52A75F00A1205AAC454F0D6
:1002AC00FFE52A75F00A1205AAAEF0EF2EFD7F8845
:1002BC0012090FE52B75F00A1205AAC454F0FFE5DC
:1002CC002B75F00A1205AAAEF0EF2EFD7F861209EF
:1002DC000FE52C75F00A1205AAC454F0FFE52C7535
:1002EC00F00A1205AAAEF0EF2EFD7F8412090FE57D
:1002FC002D75F00A1205AAC454F0FFE52D75F00A0D
:10030C001205AAAEF0EF2EFD7F8212090FE52E75B5
:10031C00F00A1205AAC454F0FFE52E75F00A120576
:10032C00AAAEF0EF2EFD7F8012090FE52F75F00AB3
:10033C001205AAC454F0FFE52F75F00A1205AAAEF7
:10034C00F0EF2EFD7F8A12090F7D807F8E02090F40
:100407007F8C120742EFC4540F75F00AA4FEEF5415
:100417000F2EF5297F88120742EFC4540F75F00A93
:10042700A4FEEF540F2EF52A7F86120742EFC4541D
:100437000F75F00AA4FEEF540F2EF52B7F841207D9
:1004470042EFC4540F75F00AA4FEEF540F2EF52C9B
:100457007F82120742EFC4540F75F00AA4FEEF54CF
:100467000F2EF52D7F80120742EFC4540F75F00A47
:10047700A4FEEF540F2EF52E7F8A120742EFC454C5
:0C0487000F75F00AA4FEEF540F2EF52FA5
:010493002246
:10077900EF24FB601314601914601F24037023E530
:10078900A0541F4480F5A022E5A0541F44A0F5A061
:1007990022E5A0541F44C0F5A022E5A0541F44E05F
:0307A900F5A02296
:10095B00EF600E0000007E0B7DBEDDFEDEFC1F8017
:01096B00EF9C
:01096C002268
:0300000002049463
:0C049400787FE4F6D8FD7581360204DBA9
:1005AA00C2D530F707B2D563F0FF05F030E70CB2D9
:1005BA00D5F4048463F0FF05F080018430D502F499
:0205CA00042209
:1005CC00EF8DF0A4A8F0CF8CF0A428CE8DF0A42E43
:0205DC00FE22FD
:1005DE00BC000BBE0029EF8DF084FFADF022E4CC01
:1005EE00F875F008EF2FFFEE33FEEC33FCEE9DECCA
:1005FE00984005FCEE9DFE0FD5F0E9E4CEFD22ED10
:10060E00F8F5F0EE8420D21CFEADF075F008EF2F59
:10061E00FFED33FD4007985006D5F0F222C398FD4A
:05062E000FD5F0EA22E7
:1004A00002000EE493A3F8E493A34003F68001F264
:1004B00008DFF48029E493A3F85407240CC8C3335D
:1004C000C4540F4420C8834004F456800146F6DF2C
:1004D000E4800B0102040810204080900856E47E5E
:1004E000019360BCA3FF543F30E509541FFEE49321
:1004F000A360010ECF54C025E060A840B8E493A3E8
:10050000FAE493A3F8E493A3C8C582C8CAC583CA12
:10051000F0A3C8C582C8CAC583CADFE9DEE780BECA
:010873000084
:00000001FF
