:0308590001080093
:1006A800E52C75F00A1205ADFD7F01120003E52C5B
:1006B80075F00A1205ADADF07F021200037D117FBF
:1006C80003120003E52D75F00A1205ADFD7F041233
:1006D8000003E52D75F00A1205ADADF07F05120097
:1006E800037D117F06120003E52E75F00A1205AD91
:1006F800FD7F07120003E52E75F00A1205ADADF077
:050708007F0802000360
:100154007D0C7F011200037D137F021200037D13C7
:100164007F031200037D137F041200037D137F05B8
:100174001200037D137F061200037D137F07120014
:10018400037D137F0812000312098B8F0EE50E64A2
:100194000A700302025AE50E6413700302025AE560
:1001A4000E640B700302025A0508E508C394044068
:1001B4000302025AE508B40107850E15AD15802B1C
:1001C400E508B4020E850E16AD157F07120003ADC7
:1001D4000E8018E508B4031A850E17AD157F0612B4
:1001E4000003AD167F07120003AD177F081200034A
:1001F4008028E50864047022850E18AD157F051269
:100204000003AD167F06120003AD177F071200032B
:10021400AD187F08120003E4F508AF187E007C03D4
:100224007DE81205CFAC06AD07E51775F064A4AE02
:10023400F02DF51CEC3EF51BE51675F00AA4AEF0A6
:100244007C002515F51EEC3EF51DE51C251EF5125A
:10025400E51B351DF511E50EB40B1F7D137F05124B
:1002640000037D137F061200037D137F0712000332
:0A0274007D137F08120003E4F50873
:01027E00225D
:10070D007D0E7F011200037D137F021200037D1306
:10071D007F031200037D027F041200037D037F051A
:10072D001200037D117F06120003E4FD7F07120006
:08073D00037D097F080200039F
:10000E007FF412095E1208E21209A512027F12068F
:10001E00A812099112098B8F0EE50EB40A08750EFF
:10002E0013050D530D03E50D24FE6012147003022B
:10003E00014B240270DE12099612015480D6120969
:10004E009B12040AAD2CE4FF1208377F0512095EDD
:10005E00AD2D7F011208377F0512095E7F02120750
:10006E00AF7513008F147F0512095EE513C4F854A3
:10007E00F0C868FEE514C4540F48FF7C037DE812F7
:10008E0005CFAA06AB077E00E514540FFF7C007D5A
:10009E00641205CFEB2FF514EA3EF5137F0312071A
:1000AE00AF7519008F1AE519C4F854F0C868FEE54B
:1000BE001AC4540F48FF7C007D0A1205CFE51A546E
:1000CE000F2FF51AEC3EF5197F0512095EE5142582
:1000DE001AF510E5133519F50FC3E5109512E50F56
:1000EE00951150031209A0AE1BAF1C7C007D0A12A5
:1000FE0005E1EFC454F0FBAE1BAF1C7C007D0A1271
:10010E0005E1EB2DFD7F021208377F0512095EAE69
:10011E001DAF1E7C007D0A1205E1EFC454F0FBAE4C
:10012E001DAF1E7C007D0A1205E1EB2DFD7F031233
:10013E0008377F0512095E12070D0200221209917F
:06014E001206A8020022C7
:03000B00020636B4
:10063600C0E0C0F0C083C082C0D075D000C000C08A
:0D06460001C002C003C004C005C006C0070B
:10065300758A66758CFC050AE50A70020509C39460
:1006630002E50994004009750900750A001208C9DA
:10067300050CE50C7002050BC39414E50B940040C4
:0A06830009750B00750C0012052329
:10068D00D007D006D005D004D003D002D001D000C1
:0B069D00D0D0D082D083D0F0D0E0326B
:1008E200538E7F5389F0438901758A66758CFCD2D9
:0808F200A9C28DD28CD2AF2205
:03085C000136134F
:05098B00AF36753613C4
:010990002244
:10035F007F13C2C4D2C2D2B5D2B4D2B0D2B1D2B24C
:10036F00D2B320B0047F11801320B104E4FF800CBE
:10037F0020B2047F0B800520B3027F0AD2C4C2C211
:10038F00D2B5D2B4D2B0D2B1D2B2D2B320B0047FF0
:10039F0011801320B1047F01800C20B2047F0480F0
:1003AF000520B3027F07D2C4D2C2C2B5D2B4D2B035
:1003BF00D2B1D2B2D2B320B0047F11801320B104D6
:1003CF007F02800C20B2047F05800520B3027F08D6
:1003DF00D2C4D2C2D2B5C2B4D2B0D2B1D2B2D2B3D9
:1003EF0020B0047F11801320B1047F03800C20B252
:0A03FF00047F06800520B3027F0989
:0104090022D0
:1005230085343512035F8F34E5357008E534B41331
:1005330003E4F536E535B40108E534B41303753641
:1005430001E535B40208E534B41303753602E53525
:10055300B40308E534B41303753603E535B404086E
:10056300E534B41303753604E535B40508E534B44E
:100573001303753605E535B40608E534B41303757E
:100583003606E535B40708E534B41303753607E5D5
:1005930035B40808E534B41303753608E535B409F2
:0905A30008E534B41303753609B0
:0105AC00222C
:10092600C0F9A4B0999282F880908883C6A1868E79
:03093600BF7FFF81
:0E085F000920001313131313131313011F01A9
:0700030074202FF8A605226E
:1007DF008F308D317580FF7F0612077CE53014FF57
:1007EF007401A807088002C333D8FCF4F5807F0793
:0C07FF0012077CE53190092693F580225A
:1008C9007420251FF8E6FDAF1F1207DF051FE51F7E
:0808D900D394095003751F01BF
:0108E10022F4
:0408AF00D2A07F054F
:1008B300000000000000000000000000000000AE87
:0608C300071FEE70EB229E
:0F097000D2A11208AFC2A17F051208B3C2A02204
:0C097F00C2A11208AFD2A17F050208B38C
:02080B00AD0737
:10080D00E4FCC2A07F051208B3ED30E704D2A1804D
:10081D0002C2A17F051208B3D2A0ED25E0FD7F0530
:09082D001208B30CBC08DBC2A0E8
:01083600229F
:10087700E4FC1208AFED25E0FD30A103430501C2FA
:0C088700A07F051208B30CBC08E8AF0508
:010893002242
:10094C001208AFA2A1E433FDC2A07F051208B3AF19
:01095C000595
:01095D002277
:1008FA00C2A0EF24FF92A17F051208B31208AFC26B
:08090A00A0D2A17F050208B391
:100894008F327F0412077CE53214FF7401A8070825
:0B08A4008002C333D8FC74FFF58022F3
:050991007F0102089443
:050996007F020208943D
:05099B007F0302089437
:0509A0007F0402089431
:100837008F328D331209707FA012080B12094CAF4B
:100847003212080B12094CAF3312080B12094C0273
:02085700097F17
:0207AF008F3287
:1007B1001209707FA012080B12094CAF3212080BFC
:1007C10012094C1209707FA112080B12094C120870
:0D07D100778F337F011208FA12097FAF33D2
:0107DE0022F8
:09086D000729170B0D120C1E01E6
:0509A500C293C297227D
:10093900E4FEC297EF1392A3EFC313FFD2970EBE43
:0209490008F0B4
:01094B002289
:10091200C29300C29700D29300120939AF0512099F
:0409220039C2932221
:10074500E4FDC29300C29700D2930043070112094A
:1007550039E4FFC297EDC313FD30A303430580D2EF
:10076500970FBF08EEC29300C29700D29700C2A3AD
:0607750000D2A300AF0555
:01077B00225B
:10027F00E4FD7F8E120912E52975F00A1205ADC44F
:10028F0054F0FFE52975F00A1205ADAEF0EF2EFD23
:10029F007F8C120912E52A75F00A1205ADC454F0CD
:1002AF00FFE52A75F00A1205ADAEF0EF2EFD7F883F
:1002BF00120912E52B75F00A1205ADC454F0FFE5D3
:1002CF002B75F00A1205ADAEF0EF2EFD7F861209E9
:1002DF0012E52C75F00A1205ADC454F0FFE52C752C
:1002EF00F00A1205ADAEF0EF2EFD7F84120912E574
:1002FF002D75F00A1205ADC454F0FFE52D75F00A07
:10030F001205ADAEF0EF2EFD7F82120912E52E75AC
:10031F00F00A1205ADC454F0FFE52E75F00A120570
:10032F00ADAEF0EF2EFD7F80120912E52F75F00AAA
:10033F001205ADC454F0FFE52F75F00A1205ADAEEE
:10034F00F0EF2EFD7F8A1209127D807F8E02091237
:10040A007F8C120745EFC4540F75F00AA4FEEF540F
:10041A000F2EF5297F88120745EFC4540F75F00A8D
:10042A00A4FEEF540F2EF52A7F86120745EFC45417
:10043A000F75F00AA4FEEF540F2EF52B7F841207D6
:10044A0045EFC4540F75F00AA4FEEF540F2EF52C95
:10045A007F82120745EFC4540F75F00AA4FEEF54C9
:10046A000F2EF52D7F80120745EFC4540F75F00A41
:10047A00A4FEEF540F2EF52E7F8A120745EFC454BF
:0C048A000F75F00AA4FEEF540F2EF52FA2
:010496002243
:10077C00EF24FB601314601914601F24037023E52D
:10078C00A0541F4480F5A022E5A0541F44A0F5A05E
:10079C0022E5A0541F44C0F5A022E5A0541F44E05C
:0307AC00F5A02293
:10095E00EF600E0000007E0B7DBEDDFEDEFC1F8014
:01096E00EF99
:01096F002265
:0300000002049760
:0C049700787FE4F6D8FD7581360204DEA3
:1005AD00C2D530F707B2D563F0FF05F030E70CB2D6
:1005BD00D5F4048463F0FF05F080018430D502F496
:0205CD00042206
:1005CF00EF8DF0A4A8F0CF8CF0A428CE8DF0A42E40
:0205DF00FE22FA
:1005E100BC000BBE0029EF8DF084FFADF022E4CCFE
:1005F100F875F008EF2FFFEE33FEEC33FCEE9DECC7
:10060100984005FCEE9DFE0FD5F0E9E4CEFD22ED0C
:10061100F8F5F0EE8420D21CFEADF075F008EF2F56
:10062100FFED33FD4007985006D5F0F222C398FD47
:050631000FD5F0EA22E4
:1004A30002000EE493A3F8E493A34003F68001F261
:1004B30008DFF48029E493A3F85407240CC8C3335A
:1004C300C4540F4420C8834004F456800146F6DF29
:1004D300E4800B0102040810204080900859E47E58
:1004E300019360BCA3FF543F30E509541FFEE4931E
:1004F300A360010ECF54C025E060A840B8E493A3E5
:10050300FAE493A3F8E493A3C8C582C8CAC583CA0F
:10051300F0A3C8C582C8CAC583CADFE9DEE780BEC7
:010876000081
:00000001FF
