:100B7500120BEE120BF6120C0E120BD2120800AD70
:080B85000FE4FF120B2E80F4B7
:100ACE008F0C7408D3950C401CE4D3950C50167FF4
:100ADE0004120A10AF0C7401A807088002C333D8A1
:0E0AEE00FCF4F580227F04120A107580FF22AE
:080BEE007F04120A10020BE55E
:090BDC007F04120A10E4F58022E6
:090BE5007F04120A107580FF2242
:080BF6007F05120A10C28722DC
:080BFE007F05120A10D28722C4
:080C06007F05120A10C28722CB
:100B8D00EF4E600F7D027CEFDCFEDDFCEF1F70F0A1
:030B9D001E80EDCA
:010BA0002232
:100A1000EFB408005066900A1DF8282873020A35C2
:100A2000020A3E020A47020A50020A59020A6202F8
:100A30000A6B020A74E5A0541F4410F5A022E5A039
:100A4000541F4430F5A022E5A0541F4450F5A022C5
:100A5000E5A0541F4470F5A022E5A0541F4480F582
:100A6000A022E5A0541F44A0F5A022E5A0541F44F5
:0D0A7000C0F5A022E5A0541F44E0F5A0222F
:080C0E007F05120A10C28522C5
:080C16007F05120A10D28522AD
:080C1E007F05120A10C28522B5
:100BB400C0F9A4B0999282F880908880C6C0868ECD
:020BC400BF7FF1
:0A0BD2007F07120A107F06020A10C6
:060B2800900BC4E493FDF4
:100B2E008F0A8D0B7F06120A10AF0A7401A80708F0
:100B3E008002C333D8FCF5807F07120A10850B8024
:010B4E002284
:100AFC00E4F508E4F509E509900BB493FDAF081291
:100B0C000B2E7FF47E01120B8D0509E509C3940AA7
:0B0B1C0040E40508E508C3940840D839
:010B270022AB
:100B4F00E4F50D7580FF7F027E00120B8DE50D9091
:100B5F000BB493F5807FF47E01120B8D050DE50D1F
:050B6F00C3941040DEFC
:010B7400225E
:10098900900BB6E493FDE4FF120B2E7F027E00125A
:100999000B8D900BB4E493FD7F01120B2E7F027E29
:1009A90000120B8D900BB6E493FD7F02120B2E7F84
:1009B900027E00120B8D900BB7E493FD7F03120B9F
:1009C9002E7F027E00120B8D7F04120B287F027E80
:1009D90000120B8D7F05120B287F027E00120B8DF2
:1009E900E50E75F00A84FD7F06120B2E7F027E004C
:1009F900120B8DE50E75F00A84ADF07F07120B2EF0
:070A09007F027E00020B8D4D
:100BA100050EE50ED3940C4003750E017FF47E0112
:030BB100020B8DA7
:100A7D0020B0117F147E00120B8D20B007C2803084
:100A8D00B0FDD28020B1117F147E00120B8D20B1EC
:100A9D0007C28130B1FDD28120B2117F147E0012C8
:100AAD000B8D20B207C28230B2FDD28220B3117FEE
:100ABD00147E00120B8D20B307C28330B3FDD28399
:010ACD002206
:10080000C2C4D2C2D2B5D2B4D2B0D2B1D2B2D2B3B3
:1008100020B0127F147E00120B8D20B003750F01E3
:1008200020B03F80FB20B1127F147E00120B8D2080
:10083000B103750F0220B12A80FB20B2127F147E13
:1008400000120B8D20B203750F0320B21580FB2020
:10085000B3107F147E00120B8D20B303750F04308C
:10086000B3FDD2C4C2C2D2B5D2B4D2B0D2B1D2B228
:10087000D2B320B0127F147E00120B8D20B003750E
:100880000F0520B03F80FB20B1127F147E00120BB9
:100890008D20B103750F0620B12A80FB20B2127F94
:1008A000147E00120B8D20B203750F0720B2158045
:1008B000FB20B3107F147E00120B8D20B303750F45
:1008C0000830B3FDD2C4D2C2C2B5D2B4D2B0D2B114
:1008D000D2B2D2B320B0127F147E00120B8D20B0A2
:1008E00003750F0920B03F80FB20B1127F147E00FA
:1008F000120B8D20B103750F0A20B12A80FB20B2A4
:10090000127F147E00120B8D20B203750F0B20B2E4
:100910001580FB20B3107F147E00120B8D20B303D3
:10092000750F0C30B3FDD2C4D2C2D2B5C2B4D2B0AE
:10093000D2B1D2B2D2B320B0127F147E00120B8D8E
:1009400020B003750F0D20B03F80FB20B1127F1443
:100950007E00120B8D20B103750F0E20B12A80FB93
:1009600020B2127F147E00120B8D20B203750F0F80
:1009700020B21580FB20B3107F147E00120B8D2057
:09098000B303750F1030B3FD2222
:03000000020BC62A
:0C0BC600787FE4F6D8FD75810F020B75F6
:00000001FF
