:100B6600120BDF120BE7120BFF120BC3120800ADBC
:080B76000DE4FF120B5080F4A6
:100ACA008F0A7408D3950A401CE4D3950A50167FFE
:100ADA0004120A0CAF0A7401A807088002C333D8AB
:0E0AEA00FCF4F580227F04120A0C7580FF22B6
:080BDF007F04120A0C020BD680
:090BCD007F04120A0CE4F58022F9
:090BD6007F04120A0C7580FF2255
:080BE7007F05120A0CC28722EF
:080BEF007F05120A0CD28722D7
:080BF7007F05120A0CC28722DF
:100B7E00EF4E600F7D027CEFDCFEDDFCEF1F70F0B0
:030B8E001E80EDD9
:010B91002241
:100A0C00EFB408005066900A19F8282873020A31CE
:100A1C00020A3A020A43020A4C020A55020A5E0210
:100A2C000A67020A70E5A0541F4410F5A022E5A045
:100A3C00541F4430F5A022E5A0541F4450F5A022C9
:100A4C00E5A0541F4470F5A022E5A0541F4480F586
:100A5C00A022E5A0541F44A0F5A022E5A0541F44F9
:0D0A6C00C0F5A022E5A0541F44E0F5A02233
:080BFF007F05120A0CC28522D9
:080C07007F05120A0CD28522C0
:080C0F007F05120A0CC28522C8
:100BA500C0F9A4B0999282F880908880C6C0868EDC
:020BB500BF7F00
:0A0BC3007F07120A0C7F06020A0CDD
:060B4A00900BB5E493FDE1
:100B50007401A807088002C333D8FCF4F5A0ED9017
:060B60000BA593F58022B5
:100AF800E4F508E4F509E509900BA593FDAF0812A4
:100B08000B507FF47E01120B7E0509E509C3940A98
:0B0B180040E40508E508C3940840D83D
:010B230022AF
:100B2400E4F50B7580FF7F027E00120B7EE50B90CF
:100B34000BA593F5807FF47E01120B7E050BE50B6C
:050B4400C3941040DE27
:010B49002289
:10098900900BA7E493FDE4FF120B507F027E001247
:100999000B7E900BA5E493FD7F01120B500F7E0097
:1009A900120B7E900BA7E493FD7F02120B507E0081
:1009B900120B7E900BA8E493FD7F03120B501F7E50
:1009C90000120B7E7F04120B4A7F027E00120B7EFF
:1009D9007F05120B4A7F027E00120B7EE50C75F033
:1009E9000A84FD7F06120B507F027E00120B7EE502
:1009F9000C75F00A84ADF07F07120B507F027E0060
:030A0900020B7E5F
:100B9200050CE50CD3940C4003750C017FF47E0127
:030BA200020B7EC5
:100A790020B0117F147E00120B7E20B007C2803097
:100A8900B0FDD28020B1117F147E00120B7E20B1FF
:100A990007C28130B1FDD28120B2117F147E0012CC
:100AA9000B7E20B207C28230B2FDD28220B3117F01
:100AB900147E00120B7E20B307C28330B3FDD283AC
:010AC900220A
:10080000C2B7D2B6D2B5D2B4D2B0D2B1D2B2D2B3CC
:1008100020B0127F147E00120B7E20B003E4F50D91
:1008200020B03F80FB20B1127F147E00120B7E208F
:10083000B103750D0220B12A80FB20B2127F147E15
:1008400000120B7E20B203750D0320B21580FB2031
:10085000B3107F147E00120B7E20B303750D04309D
:10086000B3FDD2B7C2B6D2B5D2B4D2B0D2B1D2B241
:10087000D2B320B0127F147E00120B7E20B003751D
:100880000D0520B03F80FB20B1127F147E00120BBB
:100890007E20B103750D0620B12A80FB20B2127FA5
:1008A000147E00120B7E20B203750D0720B2158056
:1008B000FB20B3107F147E00120B7E20B303750D56
:1008C0000830B3FDD2B7D2B6C2B5D2B4D2B0D2B12D
:1008D000D2B2D2B320B0127F147E00120B7E20B0B1
:1008E00003750D0920B03F80FB20B1127F147E00FC
:1008F000120B7E20B103750D0A20B12A80FB20B2B5
:10090000127F147E00120B7E20B203750D0B20B2F5
:100910001580FB20B3107F147E00120B7E20B303E2
:10092000750D0C30B3FDD2B7D2B6D2B5C2B4D2B0C9
:10093000D2B1D2B2D2B320B0127F147E00120B7E9D
:1009400020B003750D0D20B03F80FB20B1127F1445
:100950007E00120B7E20B103750D0E20B12A80FBA4
:1009600020B2127F147E00120B7E20B203750D0F91
:1009700020B21580FB20B3107F147E00120B7E2066
:09098000B303750D1030B3FD2224
:03000000020BB739
:0C0BB700787FE4F6D8FD75810D020B6616
:00000001FF
