:10099B001209F91209227FF47E011209B4120976A9
:0909AB007FF47E011209B480EA18
:1008F4008F0C7408D3950C401CE4D3950C50167FD0
:1009040004120887AF0C7401A807088002C333D807
:0E091400FCF4F580227F041208877580FF2214
:080A15007F04120887020A0C9D
:090A03007F04120887E4F580224B
:090A0C007F041208877580FF22A7
:080A1D007F05120887C2872241
:080A25007F05120887D2872229
:080A2D007F05120887C2872231
:1009B400EF4E600F7D027CEFDCFEDDFCEF1F70F07C
:0309C4001E80EDA5
:0109C700220D
:10088700EFB408005066900894F82828730208AC63
:100897000208B50208BE0208C70208D00208D9023A
:1008A70008E20208EBE5A0541F4410F5A022E5A0DA
:1008B700541F4430F5A022E5A0541F4450F5A02250
:1008C700E5A0541F4470F5A022E5A0541F4480F50D
:1008D700A022E5A0541F44A0F5A022E5A0541F4480
:0D08E700C0F5A022E5A0541F44E0F5A022BA
:080A35007F05120887C285222B
:080A3D007F05120887D2852213
:080A45007F05120887C285221B
:1009DB00C0F9A4B0999282F880908880C6C0868EA8
:0209EB00BF7FCC
:0A09F9007F071208877F06020887B7
:06094E009009EBE493FDAB
:100954008F0A8D0B7F06120887AF0A7401A8070857
:100964008002C333D8FCF4F5A07F07120887850BF7
:020974008022DF
:10092200E4F508E4F509E5099009DB93FDAF081247
:1009320009547FF47E011209B40509E509C3940A3A
:0B09420040E40508E508C3940840D815
:01094D002287
:10097600E4F508E4F5A07F02FE1209B4E508900943
:10098600DB93F5807FF47E011209B40508E508C300
:04099600941040DF9A
:01099A00223A
:100800009009DDE493FDE4FF1209547F027E00129B
:1008100009B49009DBE493FD7F011209547F027E45
:10082000001209B49009DDE493FD7F021209547FA0
:10083000027E001209B49009DEE493FD7F031209E1
:10084000547F027E001209B47F0412094E7F027E9B
:10085000001209B47F0512094E7F027E001209B40E
:10086000E50D75F00A84FD7F061209547F027E00B3
:100870001209B4E50D75F00A84ADF07F0712095432
:070880007F027E000209B4B3
:1009C800050DE50DD3940C4003750D017FF47E01F0
:0309D8000209B45D
:030000000209ED05
:0C09ED00787FE4F6D8FD75810D02099BAF
:00000001FF
