:100ACC00120B05120B0D120B25120AE912080080ED
:010ADC00FB1E
:1009EC008F0E7408D3950E401CE4D3950E50167FD1
:1009FC000412092EAF0E7401A807088002C333D865
:0E0A0C00FCF4F580227F0412092E7580FF2273
:080B05007F0412092E020AFC14
:090AF3007F0412092EE4F58022B3
:090AFC007F0412092E7580FF220F
:080B0D007F0512092EC28722A8
:080B15007F0512092ED2872290
:080B1D007F0512092EC2872298
:100A9300EF4E600F7D027CEFDCFEDDFCEF1F70F09C
:030AA3001E80EDC5
:010AA600222D
:10092E00EFB40800506690093BF82828730209536B
:10093E0002095C02096502096E020977020980024A
:10094E000989020992E5A0541F4410F5A022E5A0E2
:10095E00541F4430F5A022E5A0541F4450F5A022A8
:10096E00E5A0541F4470F5A022E5A0541F4480F565
:10097E00A022E5A0541F44A0F5A022E5A0541F44D8
:0D098E00C0F5A022E5A0541F44E0F5A02212
:080B25007F0512092EC2852292
:080B2D007F0512092ED285227A
:080B35007F0512092EC2852282
:100ABA00C0F9A4B0999282F880908880C6C0868EC8
:020ACA00BF7FEC
:0A0AE9007F0712092E7F0602092E76
:060A4600900ACAE493FDD2
:100A4C008F088D097F0612092EAF087401A80708BC
:100A5C008002C333D8FCF5807F0712092E850980EC
:010A6C002267
:100A1A00E4F50AE4F50BE50B900ABA93FDAF0A1266
:100A2A000A4C7FF47E01120A93050BE50BC3940A64
:0B0A3A0040E4050AE50AC3940840D818
:010A4500228E
:100A6D00E4F50F7580FF7F027E00120A93E50F906B
:100A7D000ABA93F5807FF47E01120A93050FE50FF4
:050A8D00C3941040DEDF
:010A92002241
:1008A700900ABCE493FDE4FF120A4C7F027E00121B
:1008B7000A93900ABAE493FD7F01120A4C7F027EE5
:1008C70000120A93900ABCE493FD7F02120A4C7F40
:1008D700027E00120A93900ABDE493FD7F03120A79
:1008E7004C7F027E00120A937F04120A467F027E23
:1008F70000120A937F05120A467F027E00120A93AE
:10090700E51075F00A84FD7F06120A4C7F027E000F
:10091700120A93E51075F00A84ADF07F07120A4CAE
:070927007F027E00020A932B
:100AA7000510E510D3940C40037510017FF47E0107
:030AB700020A939D
:10099B0020B0117F147E00120A9320B007C2803062
:1009AB00B0FDD28020B1117F147E00120A9320B1CA
:1009BB0007C28130B1FDD28120B2117F147E0012AB
:1009CB000A9320B207C28230B2FDD28220B3117FCC
:1009DB00147E00120A9320B307C28330B3FDD28377
:0109EB0022E9
:1008000020B02A7F147E00120A9320B010E50C70ED
:100810000CE50D7008750D01C28030B0FD20B00DE3
:10082000E50DB40108E4F50DD28030B0FD20B12A09
:100830007F147E00120A9320B110E50D700CE50CB8
:100840007008750C01C28130B1FD20B10DE50CB40A
:100850000108E4F50CD28130B1FD20B2237F147E73
:1008600000120A9320B20CE50DB40107B28220B247
:100870000F80FB20B20AE50CB40105B28430B2FD52
:1008800020B3237F147E00120A9320B30CE50DB42D
:100890000107B28320B30F80FB20B30AE50CB4013B
:0708A00005B28530B3FD2213
:03000000020ADD14
:0C0ADD00787FE4F6D8FD758110020ACC89
:00000001FF
