:100AC400120AFD120B05120B1D120AE11208008016
:010AD400FB26
:1009E4008F0E7408D3950E401CE4D3950E50167FD9
:1009F40004120926AF0E7401A807088002C333D875
:0E0A0400FCF4F580227F041209267580FF2283
:080AFD007F04120926020AF42D
:090AEB007F04120926E4F58022C3
:090AF4007F041209267580FF221F
:080B05007F05120926C28722B8
:080B0D007F05120926D28722A0
:080B15007F05120926C28722A8
:100A8B00EF4E600F7D027CEFDCFEDDFCEF1F70F0A4
:030A9B001E80EDCD
:010A9E002235
:10092600EFB408005066900933F828287302094B83
:1009360002095402095D02096602096F020978027A
:10094600098102098AE5A0541F4410F5A022E5A0FA
:10095600541F4430F5A022E5A0541F4450F5A022B0
:10096600E5A0541F4470F5A022E5A0541F4480F56D
:10097600A022E5A0541F44A0F5A022E5A0541F44E0
:0D098600C0F5A022E5A0541F44E0F5A0221A
:080B1D007F05120926C28522A2
:080B25007F05120926D285228A
:080B2D007F05120926C2852292
:100AB200C0F9A4B0999282F880908880C6C0868ED0
:020AC200BF7FF4
:0A0AE1007F071209267F060209268E
:060A3E00900AC2E493FDE2
:100A44008F088D097F06120926AF087401A80708CC
:100A54008002C333D8FCF5807F07120926850980FC
:010A6400226F
:100A1200E4F50AE4F50BE50B900AB293FDAF0A1276
:100A22000A447FF47E01120A8B050BE50BC3940A7C
:0B0A320040E4050AE50AC3940840D820
:010A3D002296
:100A6500E4F50F7580FF7F027E00120A8BE50F907B
:100A75000AB293F5807FF47E01120A8B050FE50F0C
:050A8500C3941040DEE7
:010A8A002249
:10089F00900AB4E493FDE4FF120A447F027E001233
:1008AF000A8B900AB2E493FD7F01120A447F027E05
:1008BF0000120A8B900AB4E493FD7F02120A447F60
:1008CF00027E00120A8B900AB5E493FD7F03120A91
:1008DF00447F027E00120A8B7F04120A3E7F027E43
:1008EF0000120A8B7F05120A3E7F027E00120A8BCE
:1008FF00E51075F00A84FD7F06120A447F027E0020
:10090F00120A8BE51075F00A84ADF07F07120A44C6
:07091F007F027E00020A8B3B
:100A9F000510E510D3940C40037510017FF47E010F
:030AAF00020A8BAD
:1009930020B0117F147E00120A8B20B007C2803072
:1009A300B0FDD28020B1117F147E00120A8B20B1DA
:1009B30007C28130B1FDD28120B2117F147E0012B3
:1009C3000A8B20B207C28230B2FDD28220B3117FDC
:1009D300147E00120A8B20B307C28330B3FDD28387
:0109E30022F1
:1008000020B0267F147E00120A8B20B00CE50C70FD
:1008100008750D01C28030B0FD20B00DE50DB401AA
:1008200008E4F50DD28030B0FD20B1267F147E00A3
:10083000120A8B20B10CE50D7008750C01C28130D5
:10084000B1FD20B10DE50CB40108E4F50CD2813006
:10085000B1FD20B2237F147E00120A8B20B20CE57A
:100860000DB40107C28220B20F80FB20B20AE50C52
:10087000B40105C28430B2FD20B3237F147E001280
:100880000A8B20B30CE50DB40107C28320B30F809F
:0F089000FB20B30AE50CB40105C28530B3FD228D
:03000000020AD51C
:0C0AD500787FE4F6D8FD758110020AC499
:00000001FF
