:100AF200120B5C120AD6120980E510B401F5B28716
:050B0200E4F51080EE97
:100AD6007F04120913C2807FE87E03120B077F048E
:0C0AE600120913D2807FE87E03020B0788
:100A2F008F0C7408D3950C401CE4D3950C50167F93
:100A3F0004120913AF0C7401A807088002C333D83E
:0E0A4F00FCF4F580227F041209137580FF224B
:080B65007F04120913020B5377
:090B4A007F04120913E4F5802276
:090B53007F041209137580FF22D2
:080B6D007F05120913C2872263
:080B75007F05120913D287224B
:080B7D007F05120913C2872253
:100B0700EF4E600F7D027CEFDCFEDDFCEF1F70F027
:030B17001E80ED50
:010B1A0022B8
:10091300EFB408005066900920F8282873020938BC
:1009230002094102094A02095302095C02096502EC
:10093300096E020977E5A0541F4410F5A022E5A033
:10094300541F4430F5A022E5A0541F4450F5A022C3
:10095300E5A0541F4470F5A022E5A0541F4480F580
:10096300A022E5A0541F44A0F5A022E5A0541F44F3
:0D097300C0F5A022E5A0541F44E0F5A0222D
:080B85007F05120913C285224D
:080B8D007F05120913D2852235
:080B95007F05120913C285223D
:100B2E00C0F9A4B0999282F880908880C6C0868E53
:020B3E00BF7F77
:0A0B40007F071209137F0602091354
:060A8900900B3EE493FD1A
:100A8F008F088D097F06120913AF087401A8070894
:100A9F008002C333D8FCF5807F07120913850980C4
:010AAF002224
:100A5D00E4F50AE4F50BE50B900B2E93FDAF0A12AE
:100A6D000A8F7FF47E01120B07050BE50BC3940A69
:0B0A7D0040E4050AE50AC3940840D8D5
:010A8800224B
:100AB000E4F50D7580FF7F027E00120B07E50D90B7
:100AC0000B2E93F5807FF47E01120B07050DE50DCB
:050AD000C3941040DE9C
:010AD50022FE
:10088C00900B30E493FDE4FF120A8F7F027E00127E
:10089C000B07900B2EE493FD7F01120A8F7F027ED3
:1008AC0000120B07900B30E493FD7F02120A8F7F2E
:1008BC00027E00120B07900B31E493FD7F03120AAA
:1008CC008F7F027E00120B077F04120A897F027E43
:1008DC0000120B077F05120A897F027E00120B079C
:1008EC00E50E75F00A84FD7F06120A8F7F027E00EA
:1008FC00120B07E50E75F00A84ADF07F07120A8F14
:07090C007F027E00020B07D1
:100B1B00050EE50ED3940C4003750E017FF47E0198
:030B2B00020B07B3
:1009800020B0117F147E00120B0720B007C2803008
:10099000B0FDD28020B11B7F147E00120B0720B166
:1009A000117F04120913C28130B1FD7F04120913B3
:1009B000D28120B2117F147E00120B0720B207C231
:1009C0008230B2FDD28220B3117F147E00120B0759
:0B09D00020B307C28330B3FDD28322A6
:1009DB00C2C4D2C2D2B5D2B4D2B0D2B1D2B2D2B3D7
:1009EB0020B00E7F147E00120B0720B036750F015E
:1009FB002220B10E7F147E00120B0720B125750F3C
:100A0B00022220B20E7F147E00120B0720B2147547
:100A1B000F032220B30D7F147E00120B0720B303AC
:040A2B00750F04221D
:030BA10001100040
:090B5C00D2A8D288D2B8D2AF228F
:03000300020B9D50
:040B9D00751001329C
:03000000020800F3
:0C080000787FE4F6D8FD758110020847EF
:10080C00020AF2E493A3F8E493A34003F68001F206
:10081C0008DFF48029E493A3F85407240CC8C333ED
:10082C00C4540F4420C8834004F456800146F6DFBC
:10083C00E4800B0102040810204080900BA1E47EA0
:10084C00019360BCA3FF543F30E509541FFEE493B1
:10085C00A360010ECF54C025E060A840B8E493A378
:10086C00FAE493A3F8E493A3C8C582C8CAC583CAA3
:10087C00F0A3C8C582C8CAC583CADFE9DEE780BE5B
:010BA4000050
:00000001FF
