:100A2500120B81D28020B0FD7F147E00120BB62000
:100A3500B00DE50F7009D28CC28075090A80262099
:100A4500B00AE50FB40105750932801920B00AE531
:100A55000FB4020575095A800C20B009E50FB403DF
:0A0A650004C28CD28020B0BD80FBDB
:100B65007F04120913C2807FF47E01120BB67F0445
:0C0B7500120913D2807FF47E01020BB63F
:100A6F008F107408D39510401CE4D3951050167F47
:100A7F0004120913AF107401A807088002C333D8FA
:0E0A8F00FCF4F580227F041209137580FF220B
:080C14007F04120913020C0217
:090BF9007F04120913E4F58022C7
:090C02007F041209137580FF2222
:080C1C007F05120913C28722B3
:080C24007F05120913D287229B
:080C2C007F05120913C28722A3
:100BB600EF4E600F7D027CEFDCFEDDFCEF1F70F078
:030BC6001E80EDA1
:010BC9002209
:10091300EFB408005066900920F8282873020938BC
:1009230002094102094A02095302095C02096502EC
:10093300096E020977E5A0541F4410F5A022E5A033
:10094300541F4430F5A022E5A0541F4450F5A022C3
:10095300E5A0541F4470F5A022E5A0541F4480F580
:10096300A022E5A0541F44A0F5A022E5A0541F44F3
:0D097300C0F5A022E5A0541F44E0F5A0222D
:080C34007F05120913C285229D
:080C3C007F05120913D2852285
:080C44007F05120913C285228D
:100BDD00C0F9A4B0999282F880908880C6C0868EA4
:020BED00BF7FC8
:0A0BEF007F071209137F06020913A5
:060AF400900BEDE493FD00
:100AFA008F0B8D0C7F06120913AF0B7401A8070820
:100B0A008002C333D8FCF5807F07120913850C8055
:010B1A0022B8
:100A9D00E4F50DE4F50EE50E900BDD93FDAF0D12B3
:100AAD000AFA7FF47E01120BB6050EE50EC3940A09
:0B0ABD0040E4050DE50DC3940840D88F
:010AC800220B
:100B1B00E4F5117580FF7F027E00120BB6E5119094
:100B2B000BDD93F5807FF47E01120BB60511E511F9
:050B3B00C3941040DE30
:010B40002292
:10088C00900BDFE493FDE4FF120AFA7F027E001264
:10089C000BB6900BDDE493FD7F01120AFA7F027E0A
:1008AC0000120BB6900BDFE493FD7F02120AFA7F65
:1008BC00027E00120BB6900BE0E493FD7F03120A4C
:1008CC00FA7F027E00120BB67F04120AF47F027EBE
:1008DC0000120BB67F05120AF47F027E00120BB6D3
:1008EC00E51275F00A84FD7F06120AFA7F027E007B
:1008FC00120BB6E51275F00A84ADF07F07120AFAF6
:07090C007F027E00020BB622
:100BCA000512E512D3940C40037512017FF47E01DD
:030BDA00020BB655
:1009D40020B0117F147E00120BB620B007C2803005
:1009E400B0FDD28020B1117F147E00120BB620B16D
:1009F40007C28130B1FDD28120B2117F147E001272
:100A04000BB620B207C28230B2FDD28220B3117F6E
:100A1400147E00120BB620B307C28330B3FDD28319
:010A240022AF
:10098000C2C4D2C2D2B5D2B4D2B0D2B1D2B2D2B332
:1009900020B00E7F147E00120BB620B03675130106
:1009A0002220B10E7F147E00120BB620B1257513E4
:1009B000022220B20E7F147E00120BB620B21475F4
:1009C00013032220B30D7F147E00120BB620B30355
:0409D0007513042275
:030C50000114008C
:090C0B00D2A8D288D2B8D2AF22DF
:03000300020C4CA0
:040C4C0075140132E8
:100B8100538E3F5389F0438901758CFF758A9BD23F
:0C0B9100A9D288D2B9C28DD2AFC28C228A
:100B9D0053890F438910E4F58B758D4CD2ABD28AF6
:090BAD00C2BBC28FD2AFC28E227E
:03000B00020B41A4
:100B4100C0E0C0D0758CFF758A9B0508E508B50922
:100B510004D280800AE508B46405C280750800D01B
:040B6100D0D0E032DE
:03001B00020AC90D
:100AC900C0E0C0F0C0D0758D0C758B4C050AE50AE5
:100AD90075F00A84E5F06002B281E50AB41405B242
:0B0AE90086750A00D0D0D0F0D0E032BB
:03000000020800F3
:0C080000787FE4F6D8FD758114020847EB
:10080C00020A25E493A3F8E493A34003F68001F2D3
:10081C0008DFF48029E493A3F85407240CC8C333ED
:10082C00C4540F4420C8834004F456800146F6DFBC
:10083C00E4800B0102040810204080900C50E47EF0
:10084C00019360BCA3FF543F30E509541FFEE493B1
:10085C00A360010ECF54C025E060A840B8E493A378
:10086C00FAE493A3F8E493A3C8C582C8CAC583CAA3
:10087C00F0A3C8C582C8CAC583CADFE9DEE780BE5B
:010C530000A0
:00000001FF
