:0C080000120B23120B2B120B43120B07E0
:10080C00E4F508F509F508F509120B117FF47E01E2
:10081C00120AC2120B1A7FF47E01120AC20509E5F4
:10082C000970020508C39403E5086480948040D9DC
:10083C00E4F508F509AF0974FFA807088002C33373
:10084C00D8FCF5800509E50970020508640845081F
:10085C0070E3120B4B7F887E13120AC2120B53E407
:10086C00F508F509AF0974FFA807088002C333D84F
:10087C00FCF4F5800509E5097002050864084508D3
:10088C0070E2120B337F887E13120AC2120B3BE408
:10089C00FF120A06120A34120A871208BE120AD66E
:0F08AC001209B2E50F900AE993FDE4FF120A6604
:0308BB0002080C24
:100A06008F0A7408D3950A401CE4D3950A50167FC2
:100A160004120945AF0A7401A807088002C333D837
:0E0A2600FCF4F580227F041209457580FF2242
:080B2300120B1A7F04020945C0
:090B11007F04120945E4F580227D
:090B1A007F041209457580FF22D9
:080B2B007F05120945C2872273
:080B33007F05120945D287225B
:080B3B007F05120945C2872263
:100AC200EF4E600F7D027CEFDCFEDDFCEF1F70F06D
:030AD2001E80ED96
:010AD50022FE
:10094500EFB408005066900952F828287302096A26
:1009550002097302097C02098502098E02099702C0
:1009650009A00209A9E5A0541F4410F5A022E5A09D
:10097500541F4430F5A022E5A0541F4450F5A02291
:10098500E5A0541F4470F5A022E5A0541F4480F54E
:10099500A022E5A0541F44A0F5A022E5A0541F44C1
:0D09A500C0F5A022E5A0541F44E0F5A022FB
:080B43007F05120945C285225D
:080B4B007F05120945D2852245
:080B53007F05120945C285224D
:100AE900C0F9A4B0999282F880908880C6C0868E99
:020AF900BF7FBD
:0A0B07007F071209457F0602094529
:060A6000900AF9E493FD89
:100A66008F0C8D0D7F06120945AF0C7401A807087F
:100A76008002C333D8FCF5807F07120945850D80B7
:010A8600224D
:100A3400E4F50AE4F50BE50B900AE993FDAF0A121D
:100A44000A667FF47E01120AC2050BE50BC3940A01
:0B0A540040E4050AE50AC3940840D8FE
:010A5F002274
:100A8700E4F50A7580FF7F027E00120AC2E50A902C
:100A97000AE993F5807FF47E01120AC2050AE50A86
:050AA700C3941040DEC5
:010AAC002227
:1008BE00900AEBE493FDE4FF120A667F027E0012BB
:1008CE000AC2900AE9E493FD7F01120A667F027E56
:1008DE0000120AC2900AEBE493FD7F02120A667FB1
:1008EE00027E00120AC2900AECE493FD7F03120A04
:1008FE00667F027E00120AC27F04120A607F027EA9
:10090E0000120AC27F05120A607F027E00120AC21E
:10091E00E50E75F00A84FD7F06120A667F027E00E0
:10092E00120AC2E50E75F00A84ADF07F07120A6650
:07093E007F027E00020AC2E5
:100AD600050EE50ED3940C4003750E017FF47E01DE
:030AE600020AC23F
:100AAD0020B0117F147E00120AC220B007C2803020
:050ABD00B0FDD2802213
:1009B200C2C4D2C2D2B5D2B4D2B0D2B1D2B2D2B300
:1009C20020B00E7F147E00120AC220B036750F01CD
:1009D2002220B10E7F147E00120AC220B125750FAB
:1009E200022220B20E7F147E00120AC220B21475B7
:1009F2000F032220B30D7F147E00120AC220B3031C
:040A0200750F042246
:03000000020AFBF6
:0C0AFB00787FE4F6D8FD75810F0208003A
:00000001FF
