:1009C500120A3A120A42120A5A120A1E1208C112D1
:0409D50009ED80F8B0
:100910008F0A7408D3950A401CE4D3950A50167FB9
:1009200004120800AF0A7401A807088002C333D874
:0E093000FCF4F580227F041208007580FF227F
:080A3A007F04120800020A31DA
:090A28007F04120800E4F58022AD
:090A31007F041208007580FF2209
:080A42007F05120800C28722A3
:080A4A007F05120800D287228B
:080A52007F05120800C2872293
:1009D900EF4E600F7D027CEFDCFEDDFCEF1F70F057
:0309E9001E80ED80
:0109EC0022E8
:10080000EFB40800506690080DF8282873020825F8
:1008100002082E0208370208400208490208520264
:10082000085B020864E5A0541F4410F5A022E5A06F
:10083000541F4430F5A022E5A0541F4450F5A022D7
:10084000E5A0541F4470F5A022E5A0541F4480F594
:10085000A022E5A0541F44A0F5A022E5A0541F4407
:0D086000C0F5A022E5A0541F44E0F5A02241
:080A5A007F05120800C285228D
:080A62007F05120800D2852275
:080A6A007F05120800C285227D
:100A0000C0F9A4B0999282F880908880C6C0868E82
:020A1000BF7FA6
:0A0A1E007F071208007F060208009F
:06098F00900A10E493FD44
:100995007401A807088002C333D8FCF4F5A08D8044
:0B09A5007F027E001209D97580FF223E
:10093E00E4F508E4F509E509900A0093FDAF081205
:10094E0009957FF47E011209D90509E509C3940AB8
:0B095E0040E40508E508C3940840D8F9
:01096900226B
:10096A00E4F50BE4F5A07F02FE1209D9E50B900A23
:10097A000093F5807FF47E011209D9050BE50BC3BC
:04098A00941040DFA6
:01098E002246
:1008C100900A02E493FDE4FF120995900A00E49373
:1008D100FD7F01120995900A02E493FD7F0212093E
:1008E10095900A03E493FD7F031209957F04120991
:1008F1008F7F0512098FE50C75F00A84FD7F0612C2
:0F0901000995E50C75F00A84ADF07F07020995A2
:1009ED00050CE50CD3940C4003750C017FF47E01CE
:0309FD000209D913
:1009B00020B0117F147E001209D920B007C2803008
:0509C000B0FDD2802211
:10086D00C2C4D2C2D2B5D2B4D2B0D2B1D2B2D2B346
:10087D0020B00E7F147E001209D920B036750D01FF
:10088D002220B10E7F147E001209D920B125750DDD
:10089D00022220B20E7F147E001209D920B21475E7
:1008AD000D032220B30D7F147E001209D920B3034E
:0408BD00750D04228F
:03000000020A12DF
:0C0A1200787FE4F6D8FD75810D0209C55F
:00000001FF
