:100B2C00120BA1120BA9120BC1120B7C120B9812F7
:070B3C000B10120AF480FB0C
:100AF4007F04120913C2807FF47E01120B437F042A
:0C0B0400120913D2807FF47E01020B4323
:100A25008F0C7408D3950C401CE4D3950C50167F9D
:100A350004120913AF0C7401A807088002C333D848
:0E0A4500FCF4F580227F041209137580FF2255
:080BA1007F04120913020B8FFF
:090B86007F04120913E4F580223A
:090B8F007F041209137580FF2296
:080BA9007F05120913C2872227
:080BB1007F05120913D287220F
:080BB9007F05120913C2872217
:100B4300EF4E600F7D027CEFDCFEDDFCEF1F70F0EB
:030B53001E80ED14
:010B5600227C
:10091300EFB408005066900920F8282873020938BC
:1009230002094102094A02095302095C02096502EC
:10093300096E020977E5A0541F4410F5A022E5A033
:10094300541F4430F5A022E5A0541F4450F5A022C3
:10095300E5A0541F4470F5A022E5A0541F4480F580
:10096300A022E5A0541F44A0F5A022E5A0541F44F3
:0D097300C0F5A022E5A0541F44E0F5A0222D
:080BC1007F05120913C2852211
:080BC9007F05120913D28522F9
:080BD1007F05120913C2852201
:100B6A00C0F9A4B0999282F880908880C6C0868E17
:020B7A00BF7F3B
:0A0B7C007F071209137F0602091318
:060AA700900B7AE493FDC0
:100AAD008F088D097F06120913AF087401A8070876
:100ABD008002C333D8FCF5807F07120913850980A6
:010ACD002206
:100A5300E4F50AE4F50BE50B900B6A93FDAF0A127C
:100A63000AAD7FF47E01120B43050BE50BC3940A19
:0B0A730040E4050AE50AC3940840D8DF
:010A7E002255
:100ACE00E4F50D7580FF7F027E00120B43E50D905D
:100ADE000B6A93F5807FF47E01120B43050DE50D35
:050AEE00C3941040DE7E
:010AF30022E0
:10088C00900B6CE493FDE4FF120AAD7F027E001224
:10089C000B43900B6AE493FD7F01120AAD7F027E3D
:1008AC0000120B43900B6CE493FD7F02120AAD7F98
:1008BC00027E00120B43900B6DE493FD7F03120A32
:1008CC00AD7F027E00120B437F04120AA77F027ECB
:1008DC0000120B437F05120AA77F027E00120B4306
:1008EC00E50E75F00A84FD7F06120AAD7F027E00CC
:1008FC00120B43E50E75F00A84ADF07F07120AADBA
:07090C007F027E00020B4395
:100B5700050EE50ED3940C4003750E017FF47E015C
:030B6700020B433B
:1009D40020B0117F147E00120B4320B007C2803078
:1009E400B0FDD28020B1117F147E00120B4320B1E0
:1009F40007C28130B1FDD28120B2117F147E001272
:100A04000B4320B207C28230B2FDD28220B3117FE1
:100A1400147E00120B4320B307C28330B3FDD2838C
:010A240022AF
:10098000C2C4D2C2D2B5D2B4D2B0D2B1D2B2D2B332
:1009900020B00E7F147E00120B4320B036750F017D
:1009A0002220B10E7F147E00120B4320B125750F5B
:1009B000022220B20E7F147E00120B4320B2147567
:1009C0000F032220B30D7F147E00120B4320B303CC
:0409D000750F042279
:030BDD0001100004
:090B9800D2A8D288D2B8D2AF2253
:03000300020BD914
:040BD9007510013260
:100B1000438E805389F0438901758C3C758AAFD22E
:0C0B2000A9D288D2B9C28DD2AFD28C22EB
:03000B00020A7F67
:100A7F00C0E0C0F0C0D0758CD8758AEF0511E511B4
:100A8F0075F00A84E5F06002B280E511B46402B239
:080A9F0087D0D0D0F0D0E03286
:03000000020800F3
:0C080000787FE4F6D8FD758111020847EE
:10080C00020B2CE493A3F8E493A34003F68001F2CB
:10081C0008DFF48029E493A3F85407240CC8C333ED
:10082C00C4540F4420C8834004F456800146F6DFBC
:10083C00E4800B0102040810204080900BDDE47E64
:10084C00019360BCA3FF543F30E509541FFEE493B1
:10085C00A360010ECF54C025E060A840B8E493A378
:10086C00FAE493A3F8E493A3C8C582C8CAC583CAA3
:10087C00F0A3C8C582C8CAC583CADFE9DEE780BE5B
:010BE0000014
:00000001FF
