:100B7300120BE8120BF0120C08120BC3120BDF124C
:070B83000B3E120B5A80FE2D
:100B22007F04120913C2807FF47E01120B8A7F04B4
:0C0B3200120913D2807FF47E01020B8AAE
:100A25008F0E7408D3950E401CE4D3950E50167F97
:100A350004120913AF0E7401A807088002C333D846
:0E0A4500FCF4F580227F041209137580FF2255
:080BE8007F04120913020BD671
:090BCD007F04120913E4F58022F3
:090BD6007F041209137580FF224F
:080BF0007F05120913C28722E0
:080BF8007F05120913D28722C8
:080C00007F05120913C28722CF
:100B8A00EF4E600F7D027CEFDCFEDDFCEF1F70F0A4
:030B9A001E80EDCD
:010B9D002235
:10091300EFB408005066900920F8282873020938BC
:1009230002094102094A02095302095C02096502EC
:10093300096E020977E5A0541F4410F5A022E5A033
:10094300541F4430F5A022E5A0541F4450F5A022C3
:10095300E5A0541F4470F5A022E5A0541F4480F580
:10096300A022E5A0541F44A0F5A022E5A0541F44F3
:0D097300C0F5A022E5A0541F44E0F5A0222D
:080C08007F05120913C28522C9
:080C10007F05120913D28522B1
:080C18007F05120913C28522B9
:100BB100C0F9A4B0999282F880908880C6C0868ED0
:020BC100BF7FF4
:0A0BC3007F071209137F06020913D1
:060AD500900BC1E493FD4B
:100ADB008F088D097F06120913AF087401A8070848
:100AEB008002C333D8FCF5807F0712091385098078
:010AFB0022D8
:100A5300E4F50AE4F50BE50B900BB193FDAF0A1235
:100A63000ADB7FF47E01120B8A050BE50BC3940AA4
:0B0A730040E4050AE50AC3940840D8DF
:010A7E002255
:100AFC00E4F50F7580FF7F027E00120B8AE50F90E4
:100B0C000BB193F5807FF47E01120B8A050FE50F74
:050B1C00C3941040DE4F
:010B210022B1
:10088C00900BB3E493FDE4FF120ADB7F027E0012AF
:10089C000B8A900BB1E493FD7F01120ADB7F027E81
:1008AC0000120B8A900BB3E493FD7F02120ADB7FDC
:1008BC00027E00120B8A900BB4E493FD7F03120AA4
:1008CC00DB7F027E00120B8A7F04120AD57F027E28
:1008DC0000120B8A7F05120AD57F027E00120B8A4A
:1008EC00E51075F00A84FD7F06120ADB7F027E009C
:1008FC00120B8AE51075F00A84ADF07F07120ADB43
:07090C007F027E00020B8A4E
:100B9E000510E510D3940C40037510017FF47E010F
:030BAE00020B8AAD
:1009D40020B0117F147E00120B8A20B007C2803031
:1009E400B0FDD28020B1117F147E00120B8A20B199
:1009F40007C28130B1FDD28120B2117F147E001272
:100A04000B8A20B207C28230B2FDD28220B3117F9A
:100A1400147E00120B8A20B307C28330B3FDD28345
:010A240022AF
:10098000C2C4D2C2D2B5D2B4D2B0D2B1D2B2D2B332
:1009900020B00E7F147E00120B8A20B03675110134
:1009A0002220B10E7F147E00120B8A20B125751112
:1009B000022220B20E7F147E00120B8A20B2147520
:1009C00011032220B30D7F147E00120B8A20B30383
:0409D0007511042277
:030C2400011200BA
:090BDF00D2A8D288D2B8D2AF220C
:03000300020C20CC
:040C20007512013216
:100B3E00538E3F5389F0438901758C3C758AAFD231
:0C0B4E00A9D288D2B9C28DD2AFD28C22BD
:100B5A0053890F438910E4F58B758D4CD2ABD28A39
:090B6A00C2BBC28FD2AFD28E22B1
:03000B00020A7F67
:100A7F00C0E0C0F0C0D0758C3C758AAF050CE50C9A
:100A8F0075F00A84E5F06002B280E50CB46405B23B
:0B0A9F0087750C00D0D0D0F0D0E03202
:03001B00020AAA2C
:100AAA00C0E0C0F0C0D0758D0C758B4C050DE50DFE
:100ABA0075F00A84E5F06002B281E50DB41405B25E
:0B0ACA0086750D00D0D0D0F0D0E032D7
:03000000020800F3
:0C080000787FE4F6D8FD758112020847ED
:10080C00020B73E493A3F8E493A34003F68001F284
:10081C0008DFF48029E493A3F85407240CC8C333ED
:10082C00C4540F4420C8834004F456800146F6DFBC
:10083C00E4800B0102040810204080900C24E47E1C
:10084C00019360BCA3FF543F30E509541FFEE493B1
:10085C00A360010ECF54C025E060A840B8E493A378
:10086C00FAE493A3F8E493A3C8C582C8CAC583CAA3
:10087C00F0A3C8C582C8CAC583CADFE9DEE780BE5B
:010C270000CC
:00000001FF
