:03000000020800F3
:0C080000787FE4F6D8FD75810A020847F5
:1009B000C0F9A4B0999282F880908880C6C0868ED3
:0209C000BF7FF7
:0909DD00010800010900010A00F3
:1008D500EF24FB601314601914601F24037023E5D3
:1008E500A0541F4480F5A022E5A0541F44A0F5A004
:1008F50022E5A0541F44C0F5A022E5A0541F44E002
:03090500F5A02238
:10098F00AE0775A0FF7F061208D5AF057401A80743
:10099F00088002C333D8FCF5A07F071208D58E80DC
:0109AF002225
:1009650075F00A8493FF1D12098F7FF47E01120929
:0F097500849009C0E41D93FF12098F7FF47E0167
:0B098400EF1FAC0670011E4C70F62245
:10088C00E50A75F00A84E5F09009B07D0712097B42
:10089C00E50A120965E50975F00A84E5F09009B0DE
:1008AC0012097AE509120965E50875F00A84E5F084
:1008BC009009B012097AE50875F00A8493FF1D12AD
:0908CC00098F7FF47E010209840A
:1009C200758901758C3C758AAFD2A9D2AFD28C22BF
:03000B00020938AF
:10093800C0E0C0D0758C3C758AAF050AE50AB414CE
:10094800170509750A00E509B43C0505087509008D
:0D095800E508B46303750800D0D0D0E0328C
:0709E700AE071FEE70FA22BB
:1009080020B3127F641209E720B30AB28C20B30522
:1009180012088C80F820B2177F641209E720B20F02
:10092800E4F50AF509F50820B20512088C80F822CA
:0B09D2001209C212088C12090880F8FC
:10080C000209D2E493A3F8E493A34003F68001F227
:10081C0008DFF48029E493A3F85407240CC8C333ED
:10082C00C4540F4420C8834004F456800146F6DFBC
:10083C00E4800B01020408102040809009DDE47E66
:10084C00019360BCA3FF543F30E509541FFEE493B1
:10085C00A360010ECF54C025E060A840B8E493A378
:10086C00FAE493A3F8E493A3C8C582C8CAC583CAA3
:10087C00F0A3C8C582C8CAC583CADFE9DEE780BE5B
:0109E6000010
:00000001FF
