:06097500011311010F0047
:10064E00751101E4F5107D017F011200037D117F0C
:10065E00021200037D117F031200037D117F04122D
:10066E0000037D117F05120003AE14AF157C007DD3
:10067E000A12037DAD077F06120003AE14AF157C80
:10068E00007D0A12037DED2420FD7F07120003AECC
:10069E0014AF157C007D0A12036B12037D7F0802D6
:0206AE00000347
:1006B000E4F511751001E51275F06484FF7005759D
:1006C000231180028F237D027F011200037D117FA1
:1006D000021200037D117F031200037D117F0412BB
:1006E00000037D117F05120003AD237F0612000376
:1006F000E51275F00A84FD7F07120003E51275F01C
:090700000A84ADF07F0802000339
:0403E000E511603390
:1003E400851523AC23E41202B67BF47AFD795478A4
:1003F4003C1201067BBC7A747953783F12001512C3
:1004040002EA8F24E50F7055750F0112089BE4F57D
:010414000FD8
:09041500804AE51070030204A600
:10041E00AC12E41202B6E4FBFA7980784112020FB4
:10042E001202EA8F23AC23E41202B67BB87A1E794D
:10043E0005783E1201067B9A7A99799978BE120058
:10044E00151202EA8F24E50F7009750F0112089B31
:10045E00E4F50F7D1A7F011200037D117F02120059
:10046E00037D117F031200037D117F041200037DB3
:10047E00117F051200037D117F06120003E524751E
:10048E00F00A842420FD7F07120003E52475F00A8C
:08049E0084ADF07F0812000399
:0104A6002233
:1005CB007FF41209B11209F91208008E148F157FEE
:1005DB00011207768F121209D2751101E4F5101270
:1005EB00098A120A1B8F0EE50EB40518E513641168
:1005FB006005E513B412057513208008E513B420CC
:10060B0003751311E50EB40412E513B4110575133C
:10061B00128008E513B41203751311E513B4110816
:10062B001209D212064E80BAE513B412081209DF72
:10063B001206B080ADE513642070A71209EC12030B
:03064B00E0809FAD
:03000B000204A745
:1004A700C0E0C0F0C083C082C0D075D000C000C01B
:0D04B70001C002C003C004C005C006C0079C
:1004C4000509E50970020508C39414E50894004081
:1004D400097508007509001207D5050BE50B7002B4
:1004E400050AC394DCE50A94054010750A00750BEF
:1004F400001209F91208008E148F15050DE50D7010
:1005040002050CC394D0E50C94074011E50F700A62
:10051400750F017F011207768F12750F00120944BF
:10052400D007D006D005D004D003D002D001D0002B
:0B053400D0D0D082D083D0F0D0E032D5
:10098A00538E7F5389F0758A18758CFCD2A9C28D53
:05099A00D2AFD28C2257
:050A1B00AF28E4F528FE
:010A200022B3
:10087600E4FFC2C4D2B0D2B1D2B2D2B320B00280A9
:100886001320B104E4FF800C20B2047F058005200C
:04089600B3027F0426
:01089A00223B
:1007D5008526271208768F26E5277006E5267002FE
:1007E500F528E527B40407E5267003752804E527F1
:0A07F500B40507E52670037528051A
:0107FF0022D7
:100743003F065B4F666D7D077F6F777C395E7971FE
:100753000040761E7038375C733E783D6750376EC5
:10076300BF86DBCFE6EDFD87FFEF460102040810ED
:03077300204080A3
:0E097B0009170013131313131313130116019E
:0700030074172FF8A6052277
:100850008F218D227F06120709E52190076D93F500
:10086000807F07120709E52290074393F4F5801271
:060870000A127580FF2250
:1009440074172516F8E6FDAF161208500516E516BD
:08095400D3940950037516014C
:01095C002278
:0408F600D2A07F0508
:1008FA00000000000000000000000000000000AE40
:06090A00071FEE70EB2256
:0F09C300D2A11208F6C2A17F051208FAC2A02223
:0C0A0600C2A11208F6D2A17F050208FA76
:0207A900AD079A
:1007AB00E4FCC2A07F051208FAED30E704D2A18069
:1007BB0002C2A17F051208FAD2A0ED25E0FD7F054C
:0907CB001208FA0CBC08DBC2A004
:0107D4002202
:1008D900E4FC1208F6ED25E0FD30A103430501C251
:0C08E900A07F051208FA0CBC08E8AF055F
:0108F50022E0
:10099F001208F6A2A1E433FDC2A07F051208FAAF38
:0109AF000542
:0109B0002224
:10095D00C2A0EF24FF92A17F051208FA1208F6C279
:08096D00A0D2A17F050208FAE7
:0D09D2007F041207097580FEE4FF0207098B
:0D09DF007F041207097580FDE4FF0207097F
:0D09EC007F041207097580FFE4FF02070970
:080A12007F0C7EA9DEFEDFFC73
:010A1A0022B9
:10070900EF24FC601114601714601D146023240782
:10071900702753A01F22E5A0541F4480F5A022E5AD
:10072900A0541F44A0F5A022E5A0541F44C0F5A081
:0A07390022E5A0541F44E0F5A022C1
:1009B100EF600E0000007E0B7DBEDDFEDEFC1F80C1
:0109C100EF46
:0109C2002212
:020776008F23CF
:100778001209C37F901207A912099FAF231207A974
:1007880012099F120A061209C37F911207A91209BA
:100798009F1208D98F247F0112095D120A06AF241F
:0107A800222E
:10089B008F251209C37F901207A912099F7F40125F
:1008AB0007A912099FAF251207A912099F020A0671
:040910007F057E00E1
:10091400EF1FAA0670011E4A600BE4FDEDC3940CA0
:0509240050EE0D80F70C
:0109290022AB
:0208BB00A9078B
:1008BD00E4FBC294E9139294120910D294E9C31384
:0C08CD00F90BBB08ED7F057E000209144A
:10092A00E4FBC294ECC313FCD294309403430480D6
:09093A001209100BBB08EBAF041D
:010943002291
:10082900C201D2947F0C7E00120914C2947F507EBB
:1008390000120914D2947F0A7E00120914A294921C
:0608490001120910A201DA
:01084F002286
:0D09F9001208297FCC1208BB7F440208BB06
:100800001208297FCC1208BB7FBE1208BB12092A2E
:100810008F2312092AEFFEE523FFEEC4F854F0C837
:0808200068FEEFC4540F48FF0D
:0108280022AD
:10000E00020356E86480F8E933E83360110460F0C7
:10001E00ED33EC337009E8FCE9FDEAFEEBFF220458
:10002E0060DED3EB9FEA9EE99DE8C2E78CF0C2F753
:10003E0095F0400CE8CCF8E9CDF9EACEFAEBCFFB1F
:10004E0012032185D0F05804700320D5B3E8047054
:10005E00075002B2D502036092D5EC0460F7E4CCEF
:10006E00C0E0C398F8603B94186008400DD0E0FBE8
:10007E00020338E4FBFAC9FC8028E830E406E4C940
:10008E00FBE4CAFCE830E305E4C9CACBFCE854073C
:10009E006010F8C3E913F9EA13FAEB13FBEC13FC47
:1000AE00D8F130F52FC3E49CFCEF9BFFEE9AFEEDEA
:1000BE0099FDD0E0FBEF4E4D4C701222DB03020394
:1000CE005DEC2CFCEF33FFEE33FEED33FDED30E750
:1000DE00EB020338EF2BFFEE3AFEED39FDD0E0FBDD
:1000EE0050130BBB0003020360ED13FDEE13FEEF86
:0800FE0013FFEC13FC020338B0
:10010600EC4D6011E8497017ED33EC3304600DE4F3
:10011600FCFFFEFD22E933E8330470F802035612B1
:10012600032158046009E4CC2481500628500902B2
:10013600036028400302035DC0E0EB4A7044B980C7
:1001460006D0E0FB02034CEF4E701CBD8008EBFFAF
:10015600EAFEE9FD80EBE98DF0A4FEE5F00201EF91
:10016600E9CDF9EAFEEBFFEF89F0A4FCE5F0CE89D4
:10017600F0A42EFFE435F0CD89F0A42DFEE435F091
:100186008067EF4E7005BD80D780C3EF8BF0A4ACBF
:10019600F0EE8BF0A42CFCE435F0F8EF8AF0A42CFA
:1001A600E5F038FCE433CB8DF0A42CFCE5F03BF80D
:1001B600EE8AF0A42CFCE5F038F8E433CF89F0A4FD
:1001C6002CFCE5F038CF3400CE89F0A42FFFE5F003
:1001D6003EFEE433C98DF0A42EFEE5F039CD8AF05B
:1001E600A42FFFE5F03EFEE43DFD33D0E0FB5007D3
:1001F6000BBB000F020360EC2CFCEF33FFEE33FE6B
:06020600ED33FD02033898
:10020C00020360EC5D046005E859047003020356B8
:10021C00120321580460F6EC4860F2EC7004FDFE09
:10022C00FF22C860DB2481C85009C39860025006C5
:10023C0002035D9850CAF582E9294B4A7005AB82DE
:10024C0002034C75F0007C1A7880C3EF9BEE9AED9C
:10025C0099400DC3EF9BFFEE9AFEED99FDE842F03D
:10026C00DC23ACF0D0E0FFD0E0FED0E0FDAB822090
:10027C00E7101BEB60BAEC2CFCEF33FFEE33FEED1A
:10028C0033FD020338E803F830E705C0F075F000E1
:10029C00EF2FFFEE33FEED33FD40B830E7C280AAFE
:1002AC0075F020800E75F010800575F0087D007ECD
:1002BC00007F003392D530D5031203D2EC334010BB
:1002CC00EF33FFEE33FEED33FDEC33FCD5F0ED22D6
:0E02DC00E5F0247EA2D513CC92E7CDCEFF2212
:1002EA00EDD2E7CD33EC3392D524814006E4FFFE0C
:1002FA00FDFC22FCE4CFCECDCC24E0501174FF806B
:10030A00EDC3CC13CCCD13CDCE13CECF13CF047007
:07031A00F030D5DE0203D232
:10032100E9D2E7C933E833F892D5EDD2E7CD33EC22
:0703310033FC5002B2D5229B
:10033800EC30E7100FBF000C0EBE00080DBD000426
:100348000BEB6014A2D5EB13FCED92E7FD2274FFD2
:10035800FCFDFEFF22E480F8A2D574FF13FC7D802B
:03036800E480EF3F
:0300000002053FB7
:0C053F00787FE4F6D8FD7581280205865F
:10036B00EF8DF0A4A8F0CF8CF0A428CE8DF0A42EA6
:02037B00FE2260
:10037D00BC000BBE0029EF8DF084FFADF022E4CC64
:10038D00F875F008EF2FFFEE33FEEC33FCEE9DEC2D
:10039D00984005FCEE9DFE0FD5F0E9E4CEFD22ED73
:1003AD00F8F5F0EE8420D21CFEADF075F008EF2FBD
:1003BD00FFED33FD4007985006D5F0F222C398FDAE
:0503CD000FD5F0EA224B
:0E03D200C3E49FFFE49EFEE49DFDE49CFC223C
:10054B000205CBE493A3F8E493A34003F68001F2F6
:10055B0008DFF48029E493A3F85407240CC8C333B1
:10056B00C4540F4420C8834004F456800146F6DF80
:10057B00E4800B0102040810204080900975E47E92
:10058B00019360BCA3FF543F30E509541FFEE49375
:10059B00A360010ECF54C025E060A840B8E493A33C
:1005AB00FAE493A3F8E493A3C8C582C8CAC583CA67
:1005BB00F0A3C8C582C8CAC583CADFE9DEE780BE1F
:01098900006D
:00000001FF
