:100A7900120AB2120ABA120AD2120A961209488046
:010A8900FB71
:100999008F0C7408D3950C401CE4D3950C50167F2A
:1009A90004120887AF0C7401A807088002C333D862
:0E09B900FCF4F580227F041208877580FF226F
:080AB2007F04120887020AA963
:090AA0007F04120887E4F58022AE
:090AA9007F041208877580FF220A
:080ABA007F05120887C28722A4
:080AC2007F05120887D287228C
:080ACA007F05120887C2872294
:100A4000EF4E600F7D027CEFDCFEDDFCEF1F70F0EF
:030A50001E80ED18
:010A53002280
:10088700EFB408005066900894F82828730208AC63
:100897000208B50208BE0208C70208D00208D9023A
:1008A70008E20208EBE5A0541F4410F5A022E5A0DA
:1008B700541F4430F5A022E5A0541F4450F5A02250
:1008C700E5A0541F4470F5A022E5A0541F4480F50D
:1008D700A022E5A0541F44A0F5A022E5A0541F4480
:0D08E700C0F5A022E5A0541F44E0F5A022BA
:080AD2007F05120887C285228E
:080ADA007F05120887D2852276
:080AE2007F05120887C285227E
:100A6700C0F9A4B0999282F880908880C6C0868E1B
:020A7700BF7F3F
:0A0A96007F071208877F0602088719
:0609F300900A77E493FD79
:1009F9008F088D097F06120887AF087401A80708B8
:100A09008002C333D8FCF5807F07120887850980E7
:010A190022BA
:1009C700E4F50AE4F50BE50B900A6793FDAF0A120D
:1009D70009F97FF47E01120A40050BE50BC3940A5F
:0B09E70040E4050AE50AC3940840D86C
:0109F20022E2
:100A1A00E4F50D7580FF7F027E00120A40E50D9015
:100A2A000A6793F5807FF47E01120A40050DE50DF1
:050A3A00C3941040DE32
:010A3F002294
:10080000900A69E493FDE4FF1209F97F027E001269
:100810000A40900A67E493FD7F011209F97F027E86
:1008200000120A40900A69E493FD7F021209F97FE1
:10083000027E00120A40900A6AE493FD7F031209C7
:10084000F97F027E00120A407F041209F37F027EC4
:1008500000120A407F051209F37F027E00120A404F
:10086000E50E75F00A84FD7F061209F97F027E000D
:10087000120A40E50E75F00A84ADF07F071209F9FF
:070880007F027E00020A4026
:100A5400050EE50ED3940C4003750E017FF47E0160
:030A6400020A4043
:1009480020B0117F147E00120A4020B007C2803008
:10095800B0FDD28020B1117F147E00120A4020B170
:1009680007C28130B1FDD28120B2117F147E0012FE
:100978000A4020B207C28230B2FDD28220B3117F72
:10098800147E00120A4020B307C28330B3FDD2831D
:01099800223C
:1008F400C2C4D2C2D2B5D2B4D2B0D2B1D2B2D2B3BF
:1009040020B00E7F147E00120A4020B036750F010D
:100914002220B10E7F147E00120A4020B125750FEB
:10092400022220B20E7F147E00120A4020B21475F7
:100934000F032220B30D7F147E00120A4020B3035C
:04094400750F042205
:03000000020A8A67
:0C0A8A00787FE4F6D8FD75810F020A7930
:00000001FF
