:0908000012096D12097512098D2F
:10080900E4F508F509F508F50912095B7FF47E019D
:1008190012093B1209647FF47E0112093B0509E5BF
:100829000970020508C39403E5086480948040D9DF
:10083900E4F508F509AF0974FFA807088002C33376
:10084900D8FCF5800509E509700205086408450822
:1008590070E31209957F887E1312093B12099DE402
:10086900F508F509AF0974FFA807088002C333D852
:10087900FCF4F5800509E5097002050864084508D6
:1008890070E212097D7F887E1312093B120985E403
:04089900FF12090D34
:03089D0002080945
:10090D008F0A7408D3950A401CE4D3950A50167FBC
:10091D00041208A0AF0A7401A807088002C333D8D7
:0E092D00FCF4F580227F041208A07580FF22E2
:08096D001209647F040208A0D6
:09095B007F041208A0E4F58022DB
:090964007F041208A07580FF2237
:080975007F051208A0C28722D1
:08097D007F051208A0D28722B9
:080985007F051208A0C28722C1
:10093B00EF4E600F7D027CEFDCFEDDFCEF1F70F0F5
:03094B001E80ED1E
:01094E002286
:1008A000EFB4080050669008ADF82828730208C518
:1008B0000208CE0208D70208E00208E90208F202A4
:1008C00008FB020904E5A0541F4410F5A022E5A08E
:1008D000541F4430F5A022E5A0541F4450F5A02237
:1008E000E5A0541F4470F5A022E5A0541F4480F5F4
:1008F000A022E5A0541F44A0F5A022E5A0541F4467
:0D090000C0F5A022E5A0541F44E0F5A022A0
:08098D007F051208A0C28522BB
:080995007F051208A0D28522A3
:08099D007F051208A0C28522AB
:0300000002094FA3
:0C094F00787FE4F6D8FD75810A020800EC
:00000001FF
