:10089D00EF4E600F7D027CEFDCFEDDFCEF1F70F094
:0308AD001E80EDBD
:0108B0002225
:030800001208D10A
:10080300E4F508F509F508F5091208D97FF47E0126
:1008130012089D1208DD7FF47E0112089D0509E58B
:100823000970020508C39403E5086480948040D9E5
:10083300E4F508F509AF0974FFA807088002C3337C
:10084300D8FCF5800509E509700205086408450828
:1008530070E3E4F508F509AF0974FFA807088002FF
:10086300C333D8FCF4F5800509E509700205086473
:0A08730008450870E2E4FF12087F58
:02087D00808475
:1008B1007480A807088002C313D8FCFFE5A0541F69
:0408C1004FF5A0222D
:10087F007408D39F4014E4D39F500F7401A8070846
:0E088F008002C333D8FCF4F580227580FF226E
:0808D1001208DDE4FF0208B18A
:0408D900E4F58022A0
:0408DD007580FF2201
:030000000208C52E
:0C08C500787FE4F6D8FD75810902080078
:00000001FF
